:100000000C9434000C943E000C943E000C943E0082
:100010000C943E000C943E000C943E000C943E0068
:100020000C943E000C943E000C943E000C943E0058
:100030000C943E000C943E000C943E000C943E0048
:100040000C943E000C943E000C943E000C943E0038
:100050000C943E000C943E000C943E000C943E0028
:100060000C943E000C943E0011241FBECFEFD4E050
:10007000DEBFCDBF0E944A000C9466000C940000C5
:1000800020EA3FE004C0F9013197F1F701970097AA
:10009000D1F708958FEF84B987B98AB940EA5FE054
:1000A0002FEF15B818B81BB888EE93E0FA01319716
:1000B000F1F70197D9F725B928B92BB988EE93E064
:1000C000FA013197F1F70197D9F7EBCFF894FFCF09
:00000001FF
