:100000000C9434000C943E000C943E000C943E0082
:100010000C943E000C943E000C943E000C943E0068
:100020000C943E000C943E000C943E000C943E0058
:100030000C943E000C943E000C943E000C943E0048
:100040000C943E000C943E000C943E000C943E0038
:100050000C943E000C943E000C943E000C943E0028
:100060000C943E000C943E0011241FBECFEFD4E050
:10007000DEBFCDBF0E9440000C9474000C940000C1
:1000800084B5836A84BD85B5826085BD8091B000EA
:10009000836A8093B0008091B10082608093B10048
:1000A0008FEF84B98AB917B884E687BD80E888BD28
:1000B00086E98093B3008EEB8093B40081E090E0FA
:1000C00020EA3FE0F9013197F1F70197D9F781E094
:1000D00090E0F8CF20EA3FE004C0F9013197F1F752
:0C00E00001970097D1F70895F894FFCF26
:00000001FF
