:100000000C9434000C943E000C943E000C943E0082
:100010000C943E000C943E000C943E000C943E0068
:100020000C943E000C943E000C943E000C943E0058
:100030000C943E000C943E000C943E000C943E0048
:100040000C943E000C943E000C943E000C943E0038
:100050000C943E000C943E000C943E000C943E0028
:100060000C943E000C943E0011241FBECFEFD4E050
:10007000DEBFCDBF0E9471000C94C4000C94000040
:1000800020EA3FE004C0F9013197F1F701970097AA
:10009000D1F7089540E050E060EA7FE014C02E9A66
:1000A0002CE231E0FB013197F1F721503040D1F7DC
:1000B0002E9A2CE231E0FB013197F1F721503040CC
:1000C000D1F74F5F5F4F481759074CF324E630E0F4
:1000D000FB013197F1F721503040D1F740E050E07B
:1000E000F2CF9F92AF92BF92CF92DF92EF92FF92A8
:1000F0000F931F93CF93DF938FEF87B980E066E074
:10010000962EAA24A3945CE0B52E44E0C42E38E0D9
:10011000D32E29E0E22E93E0F92E02E0C0EADFE0E0
:10012000182F8330B1F0843028F4813071F08230A0
:1001300070F409C0853089F0853068F0863079F038
:10014000873089F40EC0A8B812C0F8B810C008B93A
:100150000EC098B80CC0C8B80AC0B8B808C0D8B8A3
:1001600006C0E8B804C082E090E00E944A008CE03B
:1001700090E0FE013197F1F70197D9F7812F8F5F5A
:0C01800010E0883068F2DFCFF894FFCF69
:00000001FF
