:100000000C9434000C943E000C943E000C943E0082
:100010000C943E000C943E000C943E000C943E0068
:100020000C943E000C943E000C943E000C943E0058
:100030000C943E000C943E000C943E000C943E0048
:100040000C943E000C943E000C943E000C943E0038
:100050000C943E000C943E000C943E000C943E0028
:100060000C943E000C943E0011241FBECFEFD4E050
:10007000DEBFCDBF0E9471000C94A7000C9400005D
:1000800020EA3FE004C0F9013197F1F701970097AA
:10009000D1F7089540E050E060EA7FE014C02E9A66
:1000A0002CE231E0FB013197F1F721503040D1F7DC
:1000B0002E9A2CE231E0FB013197F1F721503040CC
:1000C000D1F74F5F5F4F481759074CF324E630E0F4
:1000D000FB013197F1F721503040D1F740E050E07B
:1000E000F2CFDF92EF92FF920F931F93CF93DF93A4
:1000F0008FEF87B980E022E0D22EEE24E39494E0E3
:10010000F92E08E0C0EADFE0182F813049F0813095
:1001100028F0823039F0833049F406C0E8B80AC0CC
:10012000D8B808C0F8B806C008B904C082E090E0AA
:100130000E944A008CED95E0FE013197F1F701979E
:10014000D9F7812F8F5F10E08430F0F2E7CFF89479
:02015000FFCFDF
:00000001FF
