:100000000C9434000C943E000C943E000C943E0082
:100010000C943E000C943E000C943E000C943E0068
:100020000C943E000C943E000C943E000C943E0058
:100030000C943E000C943E000C943E000C943E0048
:100040000C943E000C943E000C943E000C943E0038
:100050000C943E000C943E000C943E000C943E0028
:100060000C943E000C943E0011241FBECFEFD4E050
:10007000DEBFCDBF0E9471000C94AC000C94000058
:1000800020EA3FE004C0F9013197F1F701970097AA
:10009000D1F7089540E050E060EA7FE014C02E9A66
:1000A0002CE231E0FB013197F1F721503040D1F7DC
:1000B0002E9A2CE231E0FB013197F1F721503040CC
:1000C000D1F74F5F5F4F481759074CF32CED35E0E0
:1000D000FB013197F1F721503040D1F740E050E07B
:1000E000F2CFDF92EF92FF920F931F938FEF87B9BA
:1000F0008091810083608093810080E022E0D22E95
:10010000EE24E39494E0F92E08E0182F8091840007
:10011000909185008B569841C8F3109285001092FB
:100120008400113049F0113028F0123039F01330CA
:1001300049F406C0E8B80AC0D8B808C0F8B806C084
:1001400008B904C082E090E00E944A00812F8F5FCE
:0C01500010E08430D0F2DACFF894FFCF3A
:00000001FF
